:020000040000FA
:060000000A128A11FB2F19
:100F7800831603130F088F3960388F000F108316FC
:100F880003178801890183160313071387178B0139
:100F98008C0126309800831603178701903083123E
:100FA800031398000C30831603139900831203135C
:100FB8008C1EDF2FE02FDA2F1A08F0007008F200DD
:100FC80083160313981CE92FEA2FE42F7208831263
:100FD800031399001A30F100F830F000F00BF22FEB
:100FE800F10BF22F0000DA2F0A128A110028F20101
:080FF80083010A128A11BC2FCB
:04400E00E52FFF3F5C
:00000001FF
